{
  "contractName": "Contract",
  "abi": [
    {
      "constant": true,
      "inputs": [],
      "name": "a",
      "outputs": [
        {
          "internalType": "uint256",
          "name": "",
          "type": "uint256"
        }
      ],
      "payable": false,
      "stateMutability": "view",
      "type": "function"
    },
    {
      "constant": false,
      "inputs": [
        {
          "internalType": "uint256",
          "name": "newVal",
          "type": "uint256"
        }
      ],
      "name": "setValue",
      "outputs": [],
      "payable": false,
      "stateMutability": "nonpayable",
      "type": "function"
    }
  ],
  "bytecode": "0x6080604052607b60005534801561001557600080fd5b5060c3806100246000396000f3fe6080604052348015600f57600080fd5b506004361060325760003560e01c80630dbe671f14603757806355241077146053575b600080fd5b603d607e565b6040518082815260200191505060405180910390f35b607c60048036036020811015606757600080fd5b81019080803590602001909291905050506084565b005b60005481565b806000819055505056fea265627a7a72315820bdf6c447c9e563b7fde2bf93fdcb6856881b222e5975b8929170c5bed6f9abe064736f6c63430005100032",
  "source": "pragma solidity >=0.4.22 <0.7.0;\r\n\r\ncontract Contract {\r\n    uint public a = 123;\r\n\r\n    function setValue(uint newVal) external {\r\n        a = newVal;\r\n    }\r\n\r\n}",
  "sourcePath": "C:\\Users\\whxia\\Desktop\\Programming Stuff\\TornadoCatch\\Contracts\\contracts\\contract.sol",
  "compiler": {
    "name": "solc",
    "version": "0.5.16+commit.9c3226ce.Emscripten.clang"
  },
  "schemaVersion": "3.0.23",
  "updatedAt": "2020-02-15T06:23:17.092Z",
  "networkType": "ethereum",
  "devdoc": {
    "methods": {}
  },
  "userdoc": {
    "methods": {}
  }
}